{
    "_format": "hh-sol-artifact-1",
    "contractName": "CarbonOffsetNFT",
    "sourceName": "contracts/EduNFT.sol",
    "abi": [
        {
            "inputs": [
                {
                    "internalType": "address",
                    "name": "initialOwner",
                    "type": "address"
                }
            ],
            "stateMutability": "nonpayable",
            "type": "constructor"
        },
        {
            "inputs": [
                {
                    "internalType": "address",
                    "name": "sender",
                    "type": "address"
                },
                {
                    "internalType": "uint256",
                    "name": "tokenId",
                    "type": "uint256"
                },
                {
                    "internalType": "address",
                    "name": "owner",
                    "type": "address"
                }
            ],
            "name": "ERC721IncorrectOwner",
            "type": "error"
        },
        {
            "inputs": [
                {
                    "internalType": "address",
                    "name": "operator",
                    "type": "address"
                },
                {
                    "internalType": "uint256",
                    "name": "tokenId",
                    "type": "uint256"
                }
            ],
            "name": "ERC721InsufficientApproval",
            "type": "error"
        },
        {
            "inputs": [
                {
                    "internalType": "address",
                    "name": "approver",
                    "type": "address"
                }
            ],
            "name": "ERC721InvalidApprover",
            "type": "error"
        },
        {
            "inputs": [
                {
                    "internalType": "address",
                    "name": "operator",
                    "type": "address"
                }
            ],
            "name": "ERC721InvalidOperator",
            "type": "error"
        },
        {
            "inputs": [
                {
                    "internalType": "address",
                    "name": "owner",
                    "type": "address"
                }
            ],
            "name": "ERC721InvalidOwner",
            "type": "error"
        },
        {
            "inputs": [
                {
                    "internalType": "address",
                    "name": "receiver",
                    "type": "address"
                }
            ],
            "name": "ERC721InvalidReceiver",
            "type": "error"
        },
        {
            "inputs": [
                {
                    "internalType": "address",
                    "name": "sender",
                    "type": "address"
                }
            ],
            "name": "ERC721InvalidSender",
            "type": "error"
        },
        {
            "inputs": [
                {
                    "internalType": "uint256",
                    "name": "tokenId",
                    "type": "uint256"
                }
            ],
            "name": "ERC721NonexistentToken",
            "type": "error"
        },
        {
            "inputs": [
                {
                    "internalType": "address",
                    "name": "owner",
                    "type": "address"
                }
            ],
            "name": "OwnableInvalidOwner",
            "type": "error"
        },
        {
            "inputs": [
                {
                    "internalType": "address",
                    "name": "account",
                    "type": "address"
                }
            ],
            "name": "OwnableUnauthorizedAccount",
            "type": "error"
        },
        {
            "anonymous": false,
            "inputs": [
                {
                    "indexed": true,
                    "internalType": "address",
                    "name": "owner",
                    "type": "address"
                },
                {
                    "indexed": true,
                    "internalType": "address",
                    "name": "approved",
                    "type": "address"
                },
                {
                    "indexed": true,
                    "internalType": "uint256",
                    "name": "tokenId",
                    "type": "uint256"
                }
            ],
            "name": "Approval",
            "type": "event"
        },
        {
            "anonymous": false,
            "inputs": [
                {
                    "indexed": true,
                    "internalType": "address",
                    "name": "owner",
                    "type": "address"
                },
                {
                    "indexed": true,
                    "internalType": "address",
                    "name": "operator",
                    "type": "address"
                },
                {
                    "indexed": false,
                    "internalType": "bool",
                    "name": "approved",
                    "type": "bool"
                }
            ],
            "name": "ApprovalForAll",
            "type": "event"
        },
        {
            "anonymous": false,
            "inputs": [
                {
                    "indexed": false,
                    "internalType": "uint256",
                    "name": "_fromTokenId",
                    "type": "uint256"
                },
                {
                    "indexed": false,
                    "internalType": "uint256",
                    "name": "_toTokenId",
                    "type": "uint256"
                }
            ],
            "name": "BatchMetadataUpdate",
            "type": "event"
        },
        {
            "anonymous": false,
            "inputs": [
                {
                    "indexed": false,
                    "internalType": "uint256",
                    "name": "_tokenId",
                    "type": "uint256"
                }
            ],
            "name": "MetadataUpdate",
            "type": "event"
        },
        {
            "anonymous": false,
            "inputs": [
                {
                    "indexed": true,
                    "internalType": "address",
                    "name": "recipient",
                    "type": "address"
                },
                {
                    "indexed": false,
                    "internalType": "uint256",
                    "name": "tokenId",
                    "type": "uint256"
                },
                {
                    "indexed": false,
                    "internalType": "string",
                    "name": "tokenURI",
                    "type": "string"
                }
            ],
            "name": "NFTMinted",
            "type": "event"
        },
        {
            "anonymous": false,
            "inputs": [
                {
                    "indexed": true,
                    "internalType": "address",
                    "name": "previousOwner",
                    "type": "address"
                },
                {
                    "indexed": true,
                    "internalType": "address",
                    "name": "newOwner",
                    "type": "address"
                }
            ],
            "name": "OwnershipTransferred",
            "type": "event"
        },
        {
            "anonymous": false,
            "inputs": [
                {
                    "indexed": true,
                    "internalType": "address",
                    "name": "from",
                    "type": "address"
                },
                {
                    "indexed": true,
                    "internalType": "address",
                    "name": "to",
                    "type": "address"
                },
                {
                    "indexed": true,
                    "internalType": "uint256",
                    "name": "tokenId",
                    "type": "uint256"
                }
            ],
            "name": "Transfer",
            "type": "event"
        },
        {
            "inputs": [],
            "name": "_tokenIds",
            "outputs": [
                {
                    "internalType": "uint256",
                    "name": "",
                    "type": "uint256"
                }
            ],
            "stateMutability": "view",
            "type": "function"
        },
        {
            "inputs": [
                {
                    "internalType": "address",
                    "name": "to",
                    "type": "address"
                },
                {
                    "internalType": "uint256",
                    "name": "tokenId",
                    "type": "uint256"
                }
            ],
            "name": "approve",
            "outputs": [],
            "stateMutability": "nonpayable",
            "type": "function"
        },
        {
            "inputs": [
                {
                    "internalType": "address",
                    "name": "owner",
                    "type": "address"
                }
            ],
            "name": "balanceOf",
            "outputs": [
                {
                    "internalType": "uint256",
                    "name": "",
                    "type": "uint256"
                }
            ],
            "stateMutability": "view",
            "type": "function"
        },
        {
            "inputs": [
                {
                    "internalType": "uint256",
                    "name": "tokenId",
                    "type": "uint256"
                }
            ],
            "name": "getApproved",
            "outputs": [
                {
                    "internalType": "address",
                    "name": "",
                    "type": "address"
                }
            ],
            "stateMutability": "view",
            "type": "function"
        },
        {
            "inputs": [
                {
                    "internalType": "address",
                    "name": "owner",
                    "type": "address"
                },
                {
                    "internalType": "address",
                    "name": "operator",
                    "type": "address"
                }
            ],
            "name": "isApprovedForAll",
            "outputs": [
                {
                    "internalType": "bool",
                    "name": "",
                    "type": "bool"
                }
            ],
            "stateMutability": "view",
            "type": "function"
        },
        {
            "inputs": [
                {
                    "internalType": "address",
                    "name": "recipient",
                    "type": "address"
                },
                {
                    "internalType": "string",
                    "name": "tokenURI",
                    "type": "string"
                }
            ],
            "name": "mintNFT",
            "outputs": [
                {
                    "internalType": "uint256",
                    "name": "",
                    "type": "uint256"
                }
            ],
            "stateMutability": "nonpayable",
            "type": "function"
        },
        {
            "inputs": [],
            "name": "name",
            "outputs": [
                {
                    "internalType": "string",
                    "name": "",
                    "type": "string"
                }
            ],
            "stateMutability": "view",
            "type": "function"
        },
        {
            "inputs": [],
            "name": "owner",
            "outputs": [
                {
                    "internalType": "address",
                    "name": "",
                    "type": "address"
                }
            ],
            "stateMutability": "view",
            "type": "function"
        },
        {
            "inputs": [
                {
                    "internalType": "uint256",
                    "name": "tokenId",
                    "type": "uint256"
                }
            ],
            "name": "ownerOf",
            "outputs": [
                {
                    "internalType": "address",
                    "name": "",
                    "type": "address"
                }
            ],
            "stateMutability": "view",
            "type": "function"
        },
        {
            "inputs": [],
            "name": "renounceOwnership",
            "outputs": [],
            "stateMutability": "nonpayable",
            "type": "function"
        },
        {
            "inputs": [
                {
                    "internalType": "address",
                    "name": "from",
                    "type": "address"
                },
                {
                    "internalType": "address",
                    "name": "to",
                    "type": "address"
                },
                {
                    "internalType": "uint256",
                    "name": "tokenId",
                    "type": "uint256"
                }
            ],
            "name": "safeTransferFrom",
            "outputs": [],
            "stateMutability": "nonpayable",
            "type": "function"
        },
        {
            "inputs": [
                {
                    "internalType": "address",
                    "name": "from",
                    "type": "address"
                },
                {
                    "internalType": "address",
                    "name": "to",
                    "type": "address"
                },
                {
                    "internalType": "uint256",
                    "name": "tokenId",
                    "type": "uint256"
                },
                {
                    "internalType": "bytes",
                    "name": "data",
                    "type": "bytes"
                }
            ],
            "name": "safeTransferFrom",
            "outputs": [],
            "stateMutability": "nonpayable",
            "type": "function"
        },
        {
            "inputs": [
                {
                    "internalType": "address",
                    "name": "operator",
                    "type": "address"
                },
                {
                    "internalType": "bool",
                    "name": "approved",
                    "type": "bool"
                }
            ],
            "name": "setApprovalForAll",
            "outputs": [],
            "stateMutability": "nonpayable",
            "type": "function"
        },
        {
            "inputs": [
                {
                    "internalType": "bytes4",
                    "name": "interfaceId",
                    "type": "bytes4"
                }
            ],
            "name": "supportsInterface",
            "outputs": [
                {
                    "internalType": "bool",
                    "name": "",
                    "type": "bool"
                }
            ],
            "stateMutability": "view",
            "type": "function"
        },
        {
            "inputs": [],
            "name": "symbol",
            "outputs": [
                {
                    "internalType": "string",
                    "name": "",
                    "type": "string"
                }
            ],
            "stateMutability": "view",
            "type": "function"
        },
        {
            "inputs": [
                {
                    "internalType": "uint256",
                    "name": "tokenId",
                    "type": "uint256"
                }
            ],
            "name": "tokenURI",
            "outputs": [
                {
                    "internalType": "string",
                    "name": "",
                    "type": "string"
                }
            ],
            "stateMutability": "view",
            "type": "function"
        },
        {
            "inputs": [
                {
                    "internalType": "address",
                    "name": "from",
                    "type": "address"
                },
                {
                    "internalType": "address",
                    "name": "to",
                    "type": "address"
                },
                {
                    "internalType": "uint256",
                    "name": "tokenId",
                    "type": "uint256"
                }
            ],
            "name": "transferFrom",
            "outputs": [],
            "stateMutability": "nonpayable",
            "type": "function"
        },
        {
            "inputs": [
                {
                    "internalType": "address",
                    "name": "newOwner",
                    "type": "address"
                }
            ],
            "name": "transferOwnership",
            "outputs": [],
            "stateMutability": "nonpayable",
            "type": "function"
        }
    ],
    "bytecode": "0x608060405234801561001057600080fd5b50604051612d26380380612d2683398181016040528101906100329190610272565b806040518060400160405280600681526020017f4564754e465400000000000000000000000000000000000000000000000000008152506040518060400160405280600381526020017f454455000000000000000000000000000000000000000000000000000000000081525081600090816100ae91906104ef565b5080600190816100be91906104ef565b505050600073ffffffffffffffffffffffffffffffffffffffff168173ffffffffffffffffffffffffffffffffffffffff16036101335760006040517f1e4fbdf700000000000000000000000000000000000000000000000000000000815260040161012a91906105d0565b60405180910390fd5b6101428161014960201b60201c565b50506105eb565b6000600760009054906101000a900473ffffffffffffffffffffffffffffffffffffffff16905081600760006101000a81548173ffffffffffffffffffffffffffffffffffffffff021916908373ffffffffffffffffffffffffffffffffffffffff1602179055508173ffffffffffffffffffffffffffffffffffffffff168173ffffffffffffffffffffffffffffffffffffffff167f8be0079c531659141344cd1fd0a4f28419497f9722a3daafe3b4186f6b6457e060405160405180910390a35050565b600080fd5b600073ffffffffffffffffffffffffffffffffffffffff82169050919050565b600061023f82610214565b9050919050565b61024f81610234565b811461025a57600080fd5b50565b60008151905061026c81610246565b92915050565b6000602082840312156102885761028761020f565b5b60006102968482850161025d565b91505092915050565b600081519050919050565b7f4e487b7100000000000000000000000000000000000000000000000000000000600052604160045260246000fd5b7f4e487b7100000000000000000000000000000000000000000000000000000000600052602260045260246000fd5b6000600282049050600182168061032057607f821691505b602082108103610333576103326102d9565b5b50919050565b60008190508160005260206000209050919050565b60006020601f8301049050919050565b600082821b905092915050565b60006008830261039b7fffffffffffffffffffffffffffffffffffffffffffffffffffffffffffffffff8261035e565b6103a5868361035e565b95508019841693508086168417925050509392505050565b6000819050919050565b6000819050919050565b60006103ec6103e76103e2846103bd565b6103c7565b6103bd565b9050919050565b6000819050919050565b610406836103d1565b61041a610412826103f3565b84845461036b565b825550505050565b600090565b61042f610422565b61043a8184846103fd565b505050565b5b8181101561045e57610453600082610427565b600181019050610440565b5050565b601f8211156104a35761047481610339565b61047d8461034e565b8101602085101561048c578190505b6104a06104988561034e565b83018261043f565b50505b505050565b600082821c905092915050565b60006104c6600019846008026104a8565b1980831691505092915050565b60006104df83836104b5565b9150826002028217905092915050565b6104f88261029f565b67ffffffffffffffff811115610511576105106102aa565b5b61051b8254610308565b610526828285610462565b600060209050601f8311600181146105595760008415610547578287015190505b61055185826104d3565b8655506105b9565b601f19841661056786610339565b60005b8281101561058f5784890151825560018201915060208501945060208101905061056a565b868310156105ac57848901516105a8601f8916826104b5565b8355505b6001600288020188555050505b505050505050565b6105ca81610234565b82525050565b60006020820190506105e560008301846105c1565b92915050565b61272c806105fa6000396000f3fe608060405234801561001057600080fd5b50600436106101165760003560e01c80638da5cb5b116100a2578063b88d4fde11610071578063b88d4fde146102cd578063c87b56dd146102e9578063e985e9c514610319578063eacabe1414610349578063f2fde38b1461037957610116565b80638da5cb5b1461025757806395d89b4114610275578063a22cb46514610293578063aa46a400146102af57610116565b806323b872dd116100e957806323b872dd146101b557806342842e0e146101d15780636352211e146101ed57806370a082311461021d578063715018a61461024d57610116565b806301ffc9a71461011b57806306fdde031461014b578063081812fc14610169578063095ea7b314610199575b600080fd5b61013560048036038101906101309190611b54565b610395565b6040516101429190611b9c565b60405180910390f35b6101536103f6565b6040516101609190611c47565b60405180910390f35b610183600480360381019061017e9190611c9f565b610488565b6040516101909190611d0d565b60405180910390f35b6101b360048036038101906101ae9190611d54565b6104a4565b005b6101cf60048036038101906101ca9190611d94565b6104ba565b005b6101eb60048036038101906101e69190611d94565b6105bc565b005b61020760048036038101906102029190611c9f565b6105dc565b6040516102149190611d0d565b60405180910390f35b61023760048036038101906102329190611de7565b6105ee565b6040516102449190611e23565b60405180910390f35b6102556106a8565b005b61025f6106bc565b60405161026c9190611d0d565b60405180910390f35b61027d6106e6565b60405161028a9190611c47565b60405180910390f35b6102ad60048036038101906102a89190611e6a565b610778565b005b6102b761078e565b6040516102c49190611e23565b60405180910390f35b6102e760048036038101906102e29190611fdf565b610794565b005b61030360048036038101906102fe9190611c9f565b6107b9565b6040516103109190611c47565b60405180910390f35b610333600480360381019061032e9190612062565b6108cc565b6040516103409190611b9c565b60405180910390f35b610363600480360381019061035e9190612143565b610960565b6040516103709190611e23565b60405180910390f35b610393600480360381019061038e9190611de7565b6109f1565b005b6000634906490660e01b7bffffffffffffffffffffffffffffffffffffffffffffffffffffffff1916827bffffffffffffffffffffffffffffffffffffffffffffffffffffffff191614806103ef57506103ee82610a77565b5b9050919050565b606060008054610405906121ce565b80601f0160208091040260200160405190810160405280929190818152602001828054610431906121ce565b801561047e5780601f106104535761010080835404028352916020019161047e565b820191906000526020600020905b81548152906001019060200180831161046157829003601f168201915b5050505050905090565b600061049382610b59565b5061049d82610be1565b9050919050565b6104b682826104b1610c1e565b610c26565b5050565b600073ffffffffffffffffffffffffffffffffffffffff168273ffffffffffffffffffffffffffffffffffffffff160361052c5760006040517f64a0ae920000000000000000000000000000000000000000000000000000000081526004016105239190611d0d565b60405180910390fd5b6000610540838361053b610c1e565b610c38565b90508373ffffffffffffffffffffffffffffffffffffffff168173ffffffffffffffffffffffffffffffffffffffff16146105b6578382826040517f64283d7b0000000000000000000000000000000000000000000000000000000081526004016105ad939291906121ff565b60405180910390fd5b50505050565b6105d783838360405180602001604052806000815250610794565b505050565b60006105e782610b59565b9050919050565b60008073ffffffffffffffffffffffffffffffffffffffff168273ffffffffffffffffffffffffffffffffffffffff16036106615760006040517f89c62b640000000000000000000000000000000000000000000000000000000081526004016106589190611d0d565b60405180910390fd5b600360008373ffffffffffffffffffffffffffffffffffffffff1673ffffffffffffffffffffffffffffffffffffffff168152602001908152602001600020549050919050565b6106b0610e52565b6106ba6000610ed9565b565b6000600760009054906101000a900473ffffffffffffffffffffffffffffffffffffffff16905090565b6060600180546106f5906121ce565b80601f0160208091040260200160405190810160405280929190818152602001828054610721906121ce565b801561076e5780601f106107435761010080835404028352916020019161076e565b820191906000526020600020905b81548152906001019060200180831161075157829003601f168201915b5050505050905090565b61078a610783610c1e565b8383610f9f565b5050565b60085481565b61079f8484846104ba565b6107b36107aa610c1e565b8585858561110e565b50505050565b60606107c482610b59565b5060006006600084815260200190815260200160002080546107e5906121ce565b80601f0160208091040260200160405190810160405280929190818152602001828054610811906121ce565b801561085e5780601f106108335761010080835404028352916020019161085e565b820191906000526020600020905b81548152906001019060200180831161084157829003601f168201915b50505050509050600061086f6112bf565b905060008151036108845781925050506108c7565b6000825111156108b95780826040516020016108a1929190612272565b604051602081830303815290604052925050506108c7565b6108c2846112d6565b925050505b919050565b6000600560008473ffffffffffffffffffffffffffffffffffffffff1673ffffffffffffffffffffffffffffffffffffffff16815260200190815260200160002060008373ffffffffffffffffffffffffffffffffffffffff1673ffffffffffffffffffffffffffffffffffffffff16815260200190815260200160002060009054906101000a900460ff16905092915050565b600061096a610e52565b600060086000815461097b906122c5565b919050819055905061098d848261133f565b610997818461135d565b8373ffffffffffffffffffffffffffffffffffffffff167fd35bb95e09c04b219e35047ce7b7b300e3384264ef84a40456943dbc0fc17c1482856040516109df92919061230d565b60405180910390a28091505092915050565b6109f9610e52565b600073ffffffffffffffffffffffffffffffffffffffff168173ffffffffffffffffffffffffffffffffffffffff1603610a6b5760006040517f1e4fbdf7000000000000000000000000000000000000000000000000000000008152600401610a629190611d0d565b60405180910390fd5b610a7481610ed9565b50565b60007f80ac58cd000000000000000000000000000000000000000000000000000000007bffffffffffffffffffffffffffffffffffffffffffffffffffffffff1916827bffffffffffffffffffffffffffffffffffffffffffffffffffffffff19161480610b4257507f5b5e139f000000000000000000000000000000000000000000000000000000007bffffffffffffffffffffffffffffffffffffffffffffffffffffffff1916827bffffffffffffffffffffffffffffffffffffffffffffffffffffffff1916145b80610b525750610b51826113b9565b5b9050919050565b600080610b6583611423565b9050600073ffffffffffffffffffffffffffffffffffffffff168173ffffffffffffffffffffffffffffffffffffffff1603610bd857826040517f7e273289000000000000000000000000000000000000000000000000000000008152600401610bcf9190611e23565b60405180910390fd5b80915050919050565b60006004600083815260200190815260200160002060009054906101000a900473ffffffffffffffffffffffffffffffffffffffff169050919050565b600033905090565b610c338383836001611460565b505050565b600080610c4484611423565b9050600073ffffffffffffffffffffffffffffffffffffffff168373ffffffffffffffffffffffffffffffffffffffff1614610c8657610c85818486611625565b5b600073ffffffffffffffffffffffffffffffffffffffff168173ffffffffffffffffffffffffffffffffffffffff1614610d1757610cc8600085600080611460565b6001600360008373ffffffffffffffffffffffffffffffffffffffff1673ffffffffffffffffffffffffffffffffffffffff168152602001908152602001600020600082825403925050819055505b600073ffffffffffffffffffffffffffffffffffffffff168573ffffffffffffffffffffffffffffffffffffffff1614610d9a576001600360008773ffffffffffffffffffffffffffffffffffffffff1673ffffffffffffffffffffffffffffffffffffffff168152602001908152602001600020600082825401925050819055505b846002600086815260200190815260200160002060006101000a81548173ffffffffffffffffffffffffffffffffffffffff021916908373ffffffffffffffffffffffffffffffffffffffff160217905550838573ffffffffffffffffffffffffffffffffffffffff168273ffffffffffffffffffffffffffffffffffffffff167fddf252ad1be2c89b69c2b068fc378daa952ba7f163c4a11628f55a4df523b3ef60405160405180910390a4809150509392505050565b610e5a610c1e565b73ffffffffffffffffffffffffffffffffffffffff16610e786106bc565b73ffffffffffffffffffffffffffffffffffffffff1614610ed757610e9b610c1e565b6040517f118cdaa7000000000000000000000000000000000000000000000000000000008152600401610ece9190611d0d565b60405180910390fd5b565b6000600760009054906101000a900473ffffffffffffffffffffffffffffffffffffffff16905081600760006101000a81548173ffffffffffffffffffffffffffffffffffffffff021916908373ffffffffffffffffffffffffffffffffffffffff1602179055508173ffffffffffffffffffffffffffffffffffffffff168173ffffffffffffffffffffffffffffffffffffffff167f8be0079c531659141344cd1fd0a4f28419497f9722a3daafe3b4186f6b6457e060405160405180910390a35050565b600073ffffffffffffffffffffffffffffffffffffffff168273ffffffffffffffffffffffffffffffffffffffff160361101057816040517f5b08ba180000000000000000000000000000000000000000000000000000000081526004016110079190611d0d565b60405180910390fd5b80600560008573ffffffffffffffffffffffffffffffffffffffff1673ffffffffffffffffffffffffffffffffffffffff16815260200190815260200160002060008473ffffffffffffffffffffffffffffffffffffffff1673ffffffffffffffffffffffffffffffffffffffff16815260200190815260200160002060006101000a81548160ff0219169083151502179055508173ffffffffffffffffffffffffffffffffffffffff168373ffffffffffffffffffffffffffffffffffffffff167f17307eab39ab6107e8899845ad3d59bd9653f200f220920489ca2b5937696c31836040516111019190611b9c565b60405180910390a3505050565b60008373ffffffffffffffffffffffffffffffffffffffff163b11156112b8578273ffffffffffffffffffffffffffffffffffffffff1663150b7a02868685856040518563ffffffff1660e01b815260040161116d9493929190612392565b6020604051808303816000875af19250505080156111a957506040513d601f19601f820116820180604052508101906111a691906123f3565b60015b61122d573d80600081146111d9576040519150601f19603f3d011682016040523d82523d6000602084013e6111de565b606091505b50600081510361122557836040517f64a0ae9200000000000000000000000000000000000000000000000000000000815260040161121c9190611d0d565b60405180910390fd5b805181602001fd5b63150b7a0260e01b7bffffffffffffffffffffffffffffffffffffffffffffffffffffffff1916817bffffffffffffffffffffffffffffffffffffffffffffffffffffffff1916146112b657836040517f64a0ae920000000000000000000000000000000000000000000000000000000081526004016112ad9190611d0d565b60405180910390fd5b505b5050505050565b606060405180602001604052806000815250905090565b60606112e182610b59565b5060006112ec6112bf565b9050600081511161130c5760405180602001604052806000815250611337565b80611316846116e9565b604051602001611327929190612272565b6040516020818303038152906040525b915050919050565b6113598282604051806020016040528060008152506117b7565b5050565b8060066000848152602001908152602001600020908161137d91906125cc565b507ff8e1a15aba9398e019f0b49df1a4fde98ee17ae345cb5f6b5e2c27f5033e8ce7826040516113ad9190611e23565b60405180910390a15050565b60007f01ffc9a7000000000000000000000000000000000000000000000000000000007bffffffffffffffffffffffffffffffffffffffffffffffffffffffff1916827bffffffffffffffffffffffffffffffffffffffffffffffffffffffff1916149050919050565b60006002600083815260200190815260200160002060009054906101000a900473ffffffffffffffffffffffffffffffffffffffff169050919050565b80806114995750600073ffffffffffffffffffffffffffffffffffffffff168273ffffffffffffffffffffffffffffffffffffffff1614155b156115cd5760006114a984610b59565b9050600073ffffffffffffffffffffffffffffffffffffffff168373ffffffffffffffffffffffffffffffffffffffff161415801561151457508273ffffffffffffffffffffffffffffffffffffffff168173ffffffffffffffffffffffffffffffffffffffff1614155b8015611527575061152581846108cc565b155b1561156957826040517fa9fbf51f0000000000000000000000000000000000000000000000000000000081526004016115609190611d0d565b60405180910390fd5b81156115cb57838573ffffffffffffffffffffffffffffffffffffffff168273ffffffffffffffffffffffffffffffffffffffff167f8c5be1e5ebec7d5bd14f71427d1e84f3dd0314c0f7b2291e5b200ac8c7c3b92560405160405180910390a45b505b836004600085815260200190815260200160002060006101000a81548173ffffffffffffffffffffffffffffffffffffffff021916908373ffffffffffffffffffffffffffffffffffffffff16021790555050505050565b6116308383836117db565b6116e457600073ffffffffffffffffffffffffffffffffffffffff168373ffffffffffffffffffffffffffffffffffffffff16036116a557806040517f7e27328900000000000000000000000000000000000000000000000000000000815260040161169c9190611e23565b60405180910390fd5b81816040517f177e802f0000000000000000000000000000000000000000000000000000000081526004016116db92919061269e565b60405180910390fd5b505050565b6060600060016116f88461189c565b01905060008167ffffffffffffffff81111561171757611716611eb4565b5b6040519080825280601f01601f1916602001820160405280156117495781602001600182028036833780820191505090505b509050600082602001820190505b6001156117ac578080600190039150507f3031323334353637383961626364656600000000000000000000000000000000600a86061a8153600a85816117a05761179f6126c7565b5b04945060008503611757575b819350505050919050565b6117c183836119ef565b6117d66117cc610c1e565b600085858561110e565b505050565b60008073ffffffffffffffffffffffffffffffffffffffff168373ffffffffffffffffffffffffffffffffffffffff161415801561189357508273ffffffffffffffffffffffffffffffffffffffff168473ffffffffffffffffffffffffffffffffffffffff161480611854575061185384846108cc565b5b8061189257508273ffffffffffffffffffffffffffffffffffffffff1661187a83610be1565b73ffffffffffffffffffffffffffffffffffffffff16145b5b90509392505050565b600080600090507a184f03e93ff9f4daa797ed6e38ed64bf6a1f01000000000000000083106118fa577a184f03e93ff9f4daa797ed6e38ed64bf6a1f01000000000000000083816118f0576118ef6126c7565b5b0492506040810190505b6d04ee2d6d415b85acef81000000008310611937576d04ee2d6d415b85acef8100000000838161192d5761192c6126c7565b5b0492506020810190505b662386f26fc10000831061196657662386f26fc10000838161195c5761195b6126c7565b5b0492506010810190505b6305f5e100831061198f576305f5e1008381611985576119846126c7565b5b0492506008810190505b61271083106119b45761271083816119aa576119a96126c7565b5b0492506004810190505b606483106119d757606483816119cd576119cc6126c7565b5b0492506002810190505b600a83106119e6576001810190505b80915050919050565b600073ffffffffffffffffffffffffffffffffffffffff168273ffffffffffffffffffffffffffffffffffffffff1603611a615760006040517f64a0ae92000000000000000000000000000000000000000000000000000000008152600401611a589190611d0d565b60405180910390fd5b6000611a6f83836000610c38565b9050600073ffffffffffffffffffffffffffffffffffffffff168173ffffffffffffffffffffffffffffffffffffffff1614611ae35760006040517f73c6ac6e000000000000000000000000000000000000000000000000000000008152600401611ada9190611d0d565b60405180910390fd5b505050565b6000604051905090565b600080fd5b600080fd5b60007fffffffff0000000000000000000000000000000000000000000000000000000082169050919050565b611b3181611afc565b8114611b3c57600080fd5b50565b600081359050611b4e81611b28565b92915050565b600060208284031215611b6a57611b69611af2565b5b6000611b7884828501611b3f565b91505092915050565b60008115159050919050565b611b9681611b81565b82525050565b6000602082019050611bb16000830184611b8d565b92915050565b600081519050919050565b600082825260208201905092915050565b60005b83811015611bf1578082015181840152602081019050611bd6565b60008484015250505050565b6000601f19601f8301169050919050565b6000611c1982611bb7565b611c238185611bc2565b9350611c33818560208601611bd3565b611c3c81611bfd565b840191505092915050565b60006020820190508181036000830152611c618184611c0e565b905092915050565b6000819050919050565b611c7c81611c69565b8114611c8757600080fd5b50565b600081359050611c9981611c73565b92915050565b600060208284031215611cb557611cb4611af2565b5b6000611cc384828501611c8a565b91505092915050565b600073ffffffffffffffffffffffffffffffffffffffff82169050919050565b6000611cf782611ccc565b9050919050565b611d0781611cec565b82525050565b6000602082019050611d226000830184611cfe565b92915050565b611d3181611cec565b8114611d3c57600080fd5b50565b600081359050611d4e81611d28565b92915050565b60008060408385031215611d6b57611d6a611af2565b5b6000611d7985828601611d3f565b9250506020611d8a85828601611c8a565b9150509250929050565b600080600060608486031215611dad57611dac611af2565b5b6000611dbb86828701611d3f565b9350506020611dcc86828701611d3f565b9250506040611ddd86828701611c8a565b9150509250925092565b600060208284031215611dfd57611dfc611af2565b5b6000611e0b84828501611d3f565b91505092915050565b611e1d81611c69565b82525050565b6000602082019050611e386000830184611e14565b92915050565b611e4781611b81565b8114611e5257600080fd5b50565b600081359050611e6481611e3e565b92915050565b60008060408385031215611e8157611e80611af2565b5b6000611e8f85828601611d3f565b9250506020611ea085828601611e55565b9150509250929050565b600080fd5b600080fd5b7f4e487b7100000000000000000000000000000000000000000000000000000000600052604160045260246000fd5b611eec82611bfd565b810181811067ffffffffffffffff82111715611f0b57611f0a611eb4565b5b80604052505050565b6000611f1e611ae8565b9050611f2a8282611ee3565b919050565b600067ffffffffffffffff821115611f4a57611f49611eb4565b5b611f5382611bfd565b9050602081019050919050565b82818337600083830152505050565b6000611f82611f7d84611f2f565b611f14565b905082815260208101848484011115611f9e57611f9d611eaf565b5b611fa9848285611f60565b509392505050565b600082601f830112611fc657611fc5611eaa565b5b8135611fd6848260208601611f6f565b91505092915050565b60008060008060808587031215611ff957611ff8611af2565b5b600061200787828801611d3f565b945050602061201887828801611d3f565b935050604061202987828801611c8a565b925050606085013567ffffffffffffffff81111561204a57612049611af7565b5b61205687828801611fb1565b91505092959194509250565b6000806040838503121561207957612078611af2565b5b600061208785828601611d3f565b925050602061209885828601611d3f565b9150509250929050565b600067ffffffffffffffff8211156120bd576120bc611eb4565b5b6120c682611bfd565b9050602081019050919050565b60006120e66120e1846120a2565b611f14565b90508281526020810184848401111561210257612101611eaf565b5b61210d848285611f60565b509392505050565b600082601f83011261212a57612129611eaa565b5b813561213a8482602086016120d3565b91505092915050565b6000806040838503121561215a57612159611af2565b5b600061216885828601611d3f565b925050602083013567ffffffffffffffff81111561218957612188611af7565b5b61219585828601612115565b9150509250929050565b7f4e487b7100000000000000000000000000000000000000000000000000000000600052602260045260246000fd5b600060028204905060018216806121e657607f821691505b6020821081036121f9576121f861219f565b5b50919050565b60006060820190506122146000830186611cfe565b6122216020830185611e14565b61222e6040830184611cfe565b949350505050565b600081905092915050565b600061224c82611bb7565b6122568185612236565b9350612266818560208601611bd3565b80840191505092915050565b600061227e8285612241565b915061228a8284612241565b91508190509392505050565b7f4e487b7100000000000000000000000000000000000000000000000000000000600052601160045260246000fd5b60006122d082611c69565b91507fffffffffffffffffffffffffffffffffffffffffffffffffffffffffffffffff820361230257612301612296565b5b600182019050919050565b60006040820190506123226000830185611e14565b81810360208301526123348184611c0e565b90509392505050565b600081519050919050565b600082825260208201905092915050565b60006123648261233d565b61236e8185612348565b935061237e818560208601611bd3565b61238781611bfd565b840191505092915050565b60006080820190506123a76000830187611cfe565b6123b46020830186611cfe565b6123c16040830185611e14565b81810360608301526123d38184612359565b905095945050505050565b6000815190506123ed81611b28565b92915050565b60006020828403121561240957612408611af2565b5b6000612417848285016123de565b91505092915050565b60008190508160005260206000209050919050565b60006020601f8301049050919050565b600082821b905092915050565b6000600883026124827fffffffffffffffffffffffffffffffffffffffffffffffffffffffffffffffff82612445565b61248c8683612445565b95508019841693508086168417925050509392505050565b6000819050919050565b60006124c96124c46124bf84611c69565b6124a4565b611c69565b9050919050565b6000819050919050565b6124e3836124ae565b6124f76124ef826124d0565b848454612452565b825550505050565b600090565b61250c6124ff565b6125178184846124da565b505050565b5b8181101561253b57612530600082612504565b60018101905061251d565b5050565b601f8211156125805761255181612420565b61255a84612435565b81016020851015612569578190505b61257d61257585612435565b83018261251c565b50505b505050565b600082821c905092915050565b60006125a360001984600802612585565b1980831691505092915050565b60006125bc8383612592565b9150826002028217905092915050565b6125d582611bb7565b67ffffffffffffffff8111156125ee576125ed611eb4565b5b6125f882546121ce565b61260382828561253f565b600060209050601f8311600181146126365760008415612624578287015190505b61262e85826125b0565b865550612696565b601f19841661264486612420565b60005b8281101561266c57848901518255600182019150602085019450602081019050612647565b868310156126895784890151612685601f891682612592565b8355505b6001600288020188555050505b505050505050565b60006040820190506126b36000830185611cfe565b6126c06020830184611e14565b9392505050565b7f4e487b7100000000000000000000000000000000000000000000000000000000600052601260045260246000fdfea264697066735822122063d2e5b6c7c2e53b9d5e76f57ad1c32a8c9255cd7d96c33cfec736018b13a9b164736f6c634300081c0033",
    "linkReferences": {},
    "deployedLinkReferences": {}
}